{
  "_format": "hh-sol-artifact-1",
  "contractName": "MijoNFT",
  "sourceName": "contracts/MijoNFT.sol",
  "abi": [
    {
      "inputs": [],
      "stateMutability": "nonpayable",
      "type": "constructor"
    },
    {
      "anonymous": false,
      "inputs": [
        {
          "indexed": true,
          "internalType": "address",
          "name": "owner",
          "type": "address"
        },
        {
          "indexed": true,
          "internalType": "address",
          "name": "approved",
          "type": "address"
        },
        {
          "indexed": true,
          "internalType": "uint256",
          "name": "tokenId",
          "type": "uint256"
        }
      ],
      "name": "Approval",
      "type": "event"
    },
    {
      "anonymous": false,
      "inputs": [
        {
          "indexed": true,
          "internalType": "address",
          "name": "owner",
          "type": "address"
        },
        {
          "indexed": true,
          "internalType": "address",
          "name": "operator",
          "type": "address"
        },
        {
          "indexed": false,
          "internalType": "bool",
          "name": "approved",
          "type": "bool"
        }
      ],
      "name": "ApprovalForAll",
      "type": "event"
    },
    {
      "anonymous": false,
      "inputs": [
        {
          "indexed": false,
          "internalType": "address",
          "name": "sender",
          "type": "address"
        },
        {
          "indexed": false,
          "internalType": "uint256",
          "name": "tokenId",
          "type": "uint256"
        }
      ],
      "name": "NewMijoNFTMinted",
      "type": "event"
    },
    {
      "anonymous": false,
      "inputs": [
        {
          "indexed": true,
          "internalType": "address",
          "name": "from",
          "type": "address"
        },
        {
          "indexed": true,
          "internalType": "address",
          "name": "to",
          "type": "address"
        },
        {
          "indexed": true,
          "internalType": "uint256",
          "name": "tokenId",
          "type": "uint256"
        }
      ],
      "name": "Transfer",
      "type": "event"
    },
    {
      "inputs": [
        {
          "internalType": "address",
          "name": "to",
          "type": "address"
        },
        {
          "internalType": "uint256",
          "name": "tokenId",
          "type": "uint256"
        }
      ],
      "name": "approve",
      "outputs": [],
      "stateMutability": "nonpayable",
      "type": "function"
    },
    {
      "inputs": [
        {
          "internalType": "address",
          "name": "owner",
          "type": "address"
        }
      ],
      "name": "balanceOf",
      "outputs": [
        {
          "internalType": "uint256",
          "name": "",
          "type": "uint256"
        }
      ],
      "stateMutability": "view",
      "type": "function"
    },
    {
      "inputs": [
        {
          "internalType": "uint256",
          "name": "tokenId",
          "type": "uint256"
        }
      ],
      "name": "getApproved",
      "outputs": [
        {
          "internalType": "address",
          "name": "",
          "type": "address"
        }
      ],
      "stateMutability": "view",
      "type": "function"
    },
    {
      "inputs": [
        {
          "internalType": "address",
          "name": "owner",
          "type": "address"
        },
        {
          "internalType": "address",
          "name": "operator",
          "type": "address"
        }
      ],
      "name": "isApprovedForAll",
      "outputs": [
        {
          "internalType": "bool",
          "name": "",
          "type": "bool"
        }
      ],
      "stateMutability": "view",
      "type": "function"
    },
    {
      "inputs": [],
      "name": "makeMijoNFT",
      "outputs": [],
      "stateMutability": "nonpayable",
      "type": "function"
    },
    {
      "inputs": [],
      "name": "name",
      "outputs": [
        {
          "internalType": "string",
          "name": "",
          "type": "string"
        }
      ],
      "stateMutability": "view",
      "type": "function"
    },
    {
      "inputs": [
        {
          "internalType": "uint256",
          "name": "tokenId",
          "type": "uint256"
        }
      ],
      "name": "ownerOf",
      "outputs": [
        {
          "internalType": "address",
          "name": "",
          "type": "address"
        }
      ],
      "stateMutability": "view",
      "type": "function"
    },
    {
      "inputs": [
        {
          "internalType": "uint256",
          "name": "tokenId",
          "type": "uint256"
        }
      ],
      "name": "pickRandomFirstWord",
      "outputs": [
        {
          "internalType": "string",
          "name": "",
          "type": "string"
        }
      ],
      "stateMutability": "view",
      "type": "function"
    },
    {
      "inputs": [
        {
          "internalType": "uint256",
          "name": "tokenId",
          "type": "uint256"
        }
      ],
      "name": "pickRandomSecondWord",
      "outputs": [
        {
          "internalType": "string",
          "name": "",
          "type": "string"
        }
      ],
      "stateMutability": "view",
      "type": "function"
    },
    {
      "inputs": [
        {
          "internalType": "uint256",
          "name": "tokenId",
          "type": "uint256"
        }
      ],
      "name": "pickRandomThirdWord",
      "outputs": [
        {
          "internalType": "string",
          "name": "",
          "type": "string"
        }
      ],
      "stateMutability": "view",
      "type": "function"
    },
    {
      "inputs": [
        {
          "internalType": "address",
          "name": "from",
          "type": "address"
        },
        {
          "internalType": "address",
          "name": "to",
          "type": "address"
        },
        {
          "internalType": "uint256",
          "name": "tokenId",
          "type": "uint256"
        }
      ],
      "name": "safeTransferFrom",
      "outputs": [],
      "stateMutability": "nonpayable",
      "type": "function"
    },
    {
      "inputs": [
        {
          "internalType": "address",
          "name": "from",
          "type": "address"
        },
        {
          "internalType": "address",
          "name": "to",
          "type": "address"
        },
        {
          "internalType": "uint256",
          "name": "tokenId",
          "type": "uint256"
        },
        {
          "internalType": "bytes",
          "name": "_data",
          "type": "bytes"
        }
      ],
      "name": "safeTransferFrom",
      "outputs": [],
      "stateMutability": "nonpayable",
      "type": "function"
    },
    {
      "inputs": [
        {
          "internalType": "address",
          "name": "operator",
          "type": "address"
        },
        {
          "internalType": "bool",
          "name": "approved",
          "type": "bool"
        }
      ],
      "name": "setApprovalForAll",
      "outputs": [],
      "stateMutability": "nonpayable",
      "type": "function"
    },
    {
      "inputs": [
        {
          "internalType": "bytes4",
          "name": "interfaceId",
          "type": "bytes4"
        }
      ],
      "name": "supportsInterface",
      "outputs": [
        {
          "internalType": "bool",
          "name": "",
          "type": "bool"
        }
      ],
      "stateMutability": "view",
      "type": "function"
    },
    {
      "inputs": [],
      "name": "symbol",
      "outputs": [
        {
          "internalType": "string",
          "name": "",
          "type": "string"
        }
      ],
      "stateMutability": "view",
      "type": "function"
    },
    {
      "inputs": [
        {
          "internalType": "uint256",
          "name": "tokenId",
          "type": "uint256"
        }
      ],
      "name": "tokenURI",
      "outputs": [
        {
          "internalType": "string",
          "name": "",
          "type": "string"
        }
      ],
      "stateMutability": "view",
      "type": "function"
    },
    {
      "inputs": [
        {
          "internalType": "address",
          "name": "from",
          "type": "address"
        },
        {
          "internalType": "address",
          "name": "to",
          "type": "address"
        },
        {
          "internalType": "uint256",
          "name": "tokenId",
          "type": "uint256"
        }
      ],
      "name": "transferFrom",
      "outputs": [],
      "stateMutability": "nonpayable",
      "type": "function"
    }
  ],
  "bytecode": "0x608060405260405180610160016040528061012f81526020016200473161012f9139600890805190602001906200003892919062000b1d565b506040518061018001604052806040518060400160405280600581526020017f4d696c696300000000000000000000000000000000000000000000000000000081525081526020016040518060400160405280600681526020017f5061746f6a6f000000000000000000000000000000000000000000000000000081525081526020016040518060400160405280600681526020017f4365726f7465000000000000000000000000000000000000000000000000000081525081526020016040518060400160405280600581526020017f5669656a6f00000000000000000000000000000000000000000000000000000081525081526020016040518060400160405280600581526020017f436861766f00000000000000000000000000000000000000000000000000000081525081526020016040518060400160405280600481526020017f5769726f0000000000000000000000000000000000000000000000000000000081525081526020016040518060400160405280600481526020017f4a6566650000000000000000000000000000000000000000000000000000000081525081526020016040518060400160405280600581526020017f437561746500000000000000000000000000000000000000000000000000000081525081526020016040518060400160405280600781526020017f436f6c6f63686f0000000000000000000000000000000000000000000000000081525081526020016040518060400160405280600681526020017f43616e636865000000000000000000000000000000000000000000000000000081525081526020016040518060400160405280600581526020017f546967726500000000000000000000000000000000000000000000000000000081525081526020016040518060400160405280600581526020017f4375617465000000000000000000000000000000000000000000000000000000815250815250600990600c6200031992919062000bae565b50604051806101a001604052806040518060400160405280600881526020017f436869737075646f00000000000000000000000000000000000000000000000081525081526020016040518060400160405280600581526020017f477561706f00000000000000000000000000000000000000000000000000000081525081526020016040518060400160405280600581526020017f536865636100000000000000000000000000000000000000000000000000000081525081526020016040518060400160405280600681526020017f4261626f736f000000000000000000000000000000000000000000000000000081525081526020016040518060400160405280600481526020017f4d756c610000000000000000000000000000000000000000000000000000000081525081526020016040518060400160405280600681526020017f4365726f7465000000000000000000000000000000000000000000000000000081525081526020016040518060400160405280600881526020017f54726f6d7075646f00000000000000000000000000000000000000000000000081525081526020016040518060400160405280600481526020017f597563610000000000000000000000000000000000000000000000000000000081525081526020016040518060400160405280600781526020017f5069737475646f0000000000000000000000000000000000000000000000000081525081526020016040518060400160405280600681526020017f427261636173000000000000000000000000000000000000000000000000000081525081526020016040518060400160405280600881526020017f446561687565766f00000000000000000000000000000000000000000000000081525081526020016040518060400160405280600581526020017f536875746500000000000000000000000000000000000000000000000000000081525081526020016040518060400160405280600781526020017f43756c6562726100000000000000000000000000000000000000000000000000815250815250600a90600d6200063592919062000c15565b50604051806101a001604052806040518060400160405280600481526020017f426f6c6f0000000000000000000000000000000000000000000000000000000081525081526020016040518060400160405280600781526020017f4361717565726f0000000000000000000000000000000000000000000000000081525081526020016040518060400160405280600981526020017f43617361717565726f000000000000000000000000000000000000000000000081525081526020016040518060400160405280600781526020017f436c617665726f0000000000000000000000000000000000000000000000000081525081526020016040518060400160405280600a81526020017f4368616d626561646f720000000000000000000000000000000000000000000081525081526020016040518060400160405280600581526020017f47616c6c6f00000000000000000000000000000000000000000000000000000081525081526020016040518060400160405280600681526020017f50616a65726f000000000000000000000000000000000000000000000000000081525081526020016040518060400160405280600881526020017f426f72726163686f00000000000000000000000000000000000000000000000081525081526020016040518060400160405280600781526020017f54696b696e61790000000000000000000000000000000000000000000000000081525081526020016040518060400160405280600681526020017f426173757261000000000000000000000000000000000000000000000000000081525081526020016040518060400160405280600581526020017f536875636f00000000000000000000000000000000000000000000000000000081525081526020016040518060400160405280600481526020017f4761746f0000000000000000000000000000000000000000000000000000000081525081526020016040518060400160405280600a81526020017f50617272616e6465726f00000000000000000000000000000000000000000000815250815250600b90600d6200095192919062000c15565b503480156200095f57600080fd5b506040518060400160405280600781526020017f4d696a6f4e4654000000000000000000000000000000000000000000000000008152506040518060400160405280600481526020017f4d494a4f000000000000000000000000000000000000000000000000000000008152508160009080519060200190620009e492919062000b1d565b508060019080519060200190620009fd92919062000b1d565b50505062000a4b6040518060400160405280601781526020017f4d696a6f204e465420636f6e74726163742e204c46472100000000000000000081525062000a5160201b620010dd1760201c565b62000e36565b62000af18160405160240162000a68919062000d4a565b6040516020818303038152906040527f41304fac000000000000000000000000000000000000000000000000000000007bffffffffffffffffffffffffffffffffffffffffffffffffffffffff19166020820180517bffffffffffffffffffffffffffffffffffffffffffffffffffffffff838183161783525050505062000af460201b60201c565b50565b60008151905060006a636f6e736f6c652e6c6f679050602083016000808483855afa5050505050565b82805462000b2b9062000dc0565b90600052602060002090601f01602090048101928262000b4f576000855562000b9b565b82601f1062000b6a57805160ff191683800117855562000b9b565b8280016001018555821562000b9b579182015b8281111562000b9a57825182559160200191906001019062000b7d565b5b50905062000baa919062000c7c565b5090565b82805482825590600052602060002090810192821562000c02579160200282015b8281111562000c0157825182908051906020019062000bf092919062000b1d565b509160200191906001019062000bcf565b5b50905062000c11919062000c9b565b5090565b82805482825590600052602060002090810192821562000c69579160200282015b8281111562000c6857825182908051906020019062000c5792919062000b1d565b509160200191906001019062000c36565b5b50905062000c78919062000c9b565b5090565b5b8082111562000c9757600081600090555060010162000c7d565b5090565b5b8082111562000cbf576000818162000cb5919062000cc3565b5060010162000c9c565b5090565b50805462000cd19062000dc0565b6000825580601f1062000ce5575062000d06565b601f01602090049060005260206000209081019062000d05919062000c7c565b5b50565b600062000d168262000d6e565b62000d22818562000d79565b935062000d3481856020860162000d8a565b62000d3f8162000e25565b840191505092915050565b6000602082019050818103600083015262000d66818462000d09565b905092915050565b600081519050919050565b600082825260208201905092915050565b60005b8381101562000daa57808201518184015260208101905062000d8d565b8381111562000dba576000848401525b50505050565b6000600282049050600182168062000dd957607f821691505b6020821081141562000df05762000def62000df6565b5b50919050565b7f4e487b7100000000000000000000000000000000000000000000000000000000600052602260045260246000fd5b6000601f19601f8301169050919050565b6138eb8062000e466000396000f3fe608060405234801561001057600080fd5b506004361061010b5760003560e01c80636de097a0116100a2578063b187301f11610071578063b187301f146102b6578063b88d4fde146102e6578063c575757a14610302578063c87b56dd14610332578063e985e9c5146103625761010b565b80636de097a01461024257806370a082311461024c57806395d89b411461027c578063a22cb4651461029a5761010b565b806323b872dd116100de57806323b872dd146101aa5780632de38d68146101c657806342842e0e146101f65780636352211e146102125761010b565b806301ffc9a71461011057806306fdde0314610140578063081812fc1461015e578063095ea7b31461018e575b600080fd5b61012a600480360381019061012591906124dd565b610392565b6040516101379190613161565b60405180910390f35b610148610474565b604051610155919061317c565b60405180910390f35b6101786004803603810190610173919061252f565b610506565b60405161018591906130d1565b60405180910390f35b6101a860048036038101906101a391906124a1565b61058b565b005b6101c460048036038101906101bf919061239b565b6106a3565b005b6101e060048036038101906101db919061252f565b610703565b6040516101ed919061317c565b60405180910390f35b610210600480360381019061020b919061239b565b610821565b005b61022c6004803603810190610227919061252f565b610841565b60405161023991906130d1565b60405180910390f35b61024a6108f3565b005b61026660048036038101906102619190612336565b610af9565b60405161027391906133dc565b60405180910390f35b610284610bb1565b604051610291919061317c565b60405180910390f35b6102b460048036038101906102af9190612465565b610c43565b005b6102d060048036038101906102cb919061252f565b610c59565b6040516102dd919061317c565b60405180910390f35b61030060048036038101906102fb91906123ea565b610d77565b005b61031c6004803603810190610317919061252f565b610dd9565b604051610329919061317c565b60405180910390f35b61034c6004803603810190610347919061252f565b610ef7565b604051610359919061317c565b60405180910390f35b61037c6004803603810190610377919061235f565b611049565b6040516103899190613161565b60405180910390f35b60007f80ac58cd000000000000000000000000000000000000000000000000000000007bffffffffffffffffffffffffffffffffffffffffffffffffffffffff1916827bffffffffffffffffffffffffffffffffffffffffffffffffffffffff1916148061045d57507f5b5e139f000000000000000000000000000000000000000000000000000000007bffffffffffffffffffffffffffffffffffffffffffffffffffffffff1916827bffffffffffffffffffffffffffffffffffffffffffffffffffffffff1916145b8061046d575061046c82611176565b5b9050919050565b6060600080546104839061367b565b80601f01602080910402602001604051908101604052809291908181526020018280546104af9061367b565b80156104fc5780601f106104d1576101008083540402835291602001916104fc565b820191906000526020600020905b8154815290600101906020018083116104df57829003601f168201915b5050505050905090565b6000610511826111e0565b610550576040517f08c379a00000000000000000000000000000000000000000000000000000000081526004016105479061333c565b60405180910390fd5b6004600083815260200190815260200160002060009054906101000a900473ffffffffffffffffffffffffffffffffffffffff169050919050565b600061059682610841565b90508073ffffffffffffffffffffffffffffffffffffffff168373ffffffffffffffffffffffffffffffffffffffff161415610607576040517f08c379a00000000000000000000000000000000000000000000000000000000081526004016105fe9061339c565b60405180910390fd5b8073ffffffffffffffffffffffffffffffffffffffff1661062661124c565b73ffffffffffffffffffffffffffffffffffffffff16148061065557506106548161064f61124c565b611049565b5b610694576040517f08c379a000000000000000000000000000000000000000000000000000000000815260040161068b9061327c565b60405180910390fd5b61069e8383611254565b505050565b6106b46106ae61124c565b8261130d565b6106f3576040517f08c379a00000000000000000000000000000000000000000000000000000000081526004016106ea906133bc565b60405180910390fd5b6106fe8383836113eb565b505050565b6060600061073761071384611647565b604051602001610723919061308d565b6040516020818303038152906040526117f4565b90506009805490508161074a91906136f6565b905060098181548110610786577f4e487b7100000000000000000000000000000000000000000000000000000000600052603260045260246000fd5b90600052602060002001805461079b9061367b565b80601f01602080910402602001604051908101604052809291908181526020018280546107c79061367b565b80156108145780601f106107e957610100808354040283529160200191610814565b820191906000526020600020905b8154815290600101906020018083116107f757829003601f168201915b5050505050915050919050565b61083c83838360405180602001604052806000815250610d77565b505050565b6000806002600084815260200190815260200160002060009054906101000a900473ffffffffffffffffffffffffffffffffffffffff169050600073ffffffffffffffffffffffffffffffffffffffff168173ffffffffffffffffffffffffffffffffffffffff1614156108ea576040517f08c379a00000000000000000000000000000000000000000000000000000000081526004016108e1906132bc565b60405180910390fd5b80915050919050565b60006108ff6007611827565b9050600061090c82610703565b9050600061091983610c59565b9050600061092684610dd9565b9050600083838360405160200161093f93929190612f82565b60405160208183030381529060405290506000600882604051602001610966929190612fb3565b604051602081830303815290604052905060006109ab8361098684611835565b604051602001610997929190613048565b604051602081830303815290604052611835565b90506000816040516020016109c091906130af565b6040516020818303038152906040529050610a0f6040518060400160405280601581526020017f0a2d2d2d2d2d2d2d2d2d2d2d2d2d2d2d2d2d2d2d2d00000000000000000000008152506110dd565b610a3781604051602001610a239190612fe2565b6040516020818303038152906040526110dd565b610a756040518060400160405280601581526020017f2d2d2d2d2d2d2d2d2d2d2d2d2d2d2d2d2d2d2d2d0a00000000000000000000008152506110dd565b610a7f33896119f3565b610a898882611a11565b610aac604051806060016040528060258152602001613851602591398933611a85565b610ab66007611b24565b7f7224752d49f4916580ba0af5df777b2ac2d159e171773af2b835ac17004096b13389604051610ae7929190613138565b60405180910390a15050505050505050565b60008073ffffffffffffffffffffffffffffffffffffffff168273ffffffffffffffffffffffffffffffffffffffff161415610b6a576040517f08c379a0000000000000000000000000000000000000000000000000000000008152600401610b619061329c565b60405180910390fd5b600360008373ffffffffffffffffffffffffffffffffffffffff1673ffffffffffffffffffffffffffffffffffffffff168152602001908152602001600020549050919050565b606060018054610bc09061367b565b80601f0160208091040260200160405190810160405280929190818152602001828054610bec9061367b565b8015610c395780601f10610c0e57610100808354040283529160200191610c39565b820191906000526020600020905b815481529060010190602001808311610c1c57829003601f168201915b5050505050905090565b610c55610c4e61124c565b8383611b3a565b5050565b60606000610c8d610c6984611647565b604051602001610c799190613026565b6040516020818303038152906040526117f4565b9050600a8054905081610ca091906136f6565b9050600a8181548110610cdc577f4e487b7100000000000000000000000000000000000000000000000000000000600052603260045260246000fd5b906000526020600020018054610cf19061367b565b80601f0160208091040260200160405190810160405280929190818152602001828054610d1d9061367b565b8015610d6a5780601f10610d3f57610100808354040283529160200191610d6a565b820191906000526020600020905b815481529060010190602001808311610d4d57829003601f168201915b5050505050915050919050565b610d88610d8261124c565b8361130d565b610dc7576040517f08c379a0000000000000000000000000000000000000000000000000000000008152600401610dbe906133bc565b60405180910390fd5b610dd384848484611ca7565b50505050565b60606000610e0d610de984611647565b604051602001610df99190613004565b6040516020818303038152906040526117f4565b9050600b8054905081610e2091906136f6565b9050600b8181548110610e5c577f4e487b7100000000000000000000000000000000000000000000000000000000600052603260045260246000fd5b906000526020600020018054610e719061367b565b80601f0160208091040260200160405190810160405280929190818152602001828054610e9d9061367b565b8015610eea5780601f10610ebf57610100808354040283529160200191610eea565b820191906000526020600020905b815481529060010190602001808311610ecd57829003601f168201915b5050505050915050919050565b6060610f02826111e0565b610f41576040517f08c379a0000000000000000000000000000000000000000000000000000000008152600401610f389061331c565b60405180910390fd5b6000600660008481526020019081526020016000208054610f619061367b565b80601f0160208091040260200160405190810160405280929190818152602001828054610f8d9061367b565b8015610fda5780601f10610faf57610100808354040283529160200191610fda565b820191906000526020600020905b815481529060010190602001808311610fbd57829003601f168201915b505050505090506000610feb611d03565b9050600081511415611001578192505050611044565b60008251111561103657808260405160200161101e929190612f5e565b60405160208183030381529060405292505050611044565b61103f84611d1a565b925050505b919050565b6000600560008473ffffffffffffffffffffffffffffffffffffffff1673ffffffffffffffffffffffffffffffffffffffff16815260200190815260200160002060008373ffffffffffffffffffffffffffffffffffffffff1673ffffffffffffffffffffffffffffffffffffffff16815260200190815260200160002060009054906101000a900460ff16905092915050565b611173816040516024016110f1919061317c565b6040516020818303038152906040527f41304fac000000000000000000000000000000000000000000000000000000007bffffffffffffffffffffffffffffffffffffffffffffffffffffffff19166020820180517bffffffffffffffffffffffffffffffffffffffffffffffffffffffff8381831617835250505050611dc1565b50565b60007f01ffc9a7000000000000000000000000000000000000000000000000000000007bffffffffffffffffffffffffffffffffffffffffffffffffffffffff1916827bffffffffffffffffffffffffffffffffffffffffffffffffffffffff1916149050919050565b60008073ffffffffffffffffffffffffffffffffffffffff166002600084815260200190815260200160002060009054906101000a900473ffffffffffffffffffffffffffffffffffffffff1673ffffffffffffffffffffffffffffffffffffffff1614159050919050565b600033905090565b816004600083815260200190815260200160002060006101000a81548173ffffffffffffffffffffffffffffffffffffffff021916908373ffffffffffffffffffffffffffffffffffffffff160217905550808273ffffffffffffffffffffffffffffffffffffffff166112c783610841565b73ffffffffffffffffffffffffffffffffffffffff167f8c5be1e5ebec7d5bd14f71427d1e84f3dd0314c0f7b2291e5b200ac8c7c3b92560405160405180910390a45050565b6000611318826111e0565b611357576040517f08c379a000000000000000000000000000000000000000000000000000000000815260040161134e9061325c565b60405180910390fd5b600061136283610841565b90508073ffffffffffffffffffffffffffffffffffffffff168473ffffffffffffffffffffffffffffffffffffffff1614806113d157508373ffffffffffffffffffffffffffffffffffffffff166113b984610506565b73ffffffffffffffffffffffffffffffffffffffff16145b806113e257506113e18185611049565b5b91505092915050565b8273ffffffffffffffffffffffffffffffffffffffff1661140b82610841565b73ffffffffffffffffffffffffffffffffffffffff1614611461576040517f08c379a00000000000000000000000000000000000000000000000000000000081526004016114589061335c565b60405180910390fd5b600073ffffffffffffffffffffffffffffffffffffffff168273ffffffffffffffffffffffffffffffffffffffff1614156114d1576040517f08c379a00000000000000000000000000000000000000000000000000000000081526004016114c89061321c565b60405180910390fd5b6114dc838383611dea565b6114e7600082611254565b6001600360008573ffffffffffffffffffffffffffffffffffffffff1673ffffffffffffffffffffffffffffffffffffffff16815260200190815260200160002060008282546115379190613591565b925050819055506001600360008473ffffffffffffffffffffffffffffffffffffffff1673ffffffffffffffffffffffffffffffffffffffff168152602001908152602001600020600082825461158e91906134b0565b92505081905550816002600083815260200190815260200160002060006101000a81548173ffffffffffffffffffffffffffffffffffffffff021916908373ffffffffffffffffffffffffffffffffffffffff160217905550808273ffffffffffffffffffffffffffffffffffffffff168473ffffffffffffffffffffffffffffffffffffffff167fddf252ad1be2c89b69c2b068fc378daa952ba7f163c4a11628f55a4df523b3ef60405160405180910390a4505050565b6060600082141561168f576040518060400160405280600181526020017f300000000000000000000000000000000000000000000000000000000000000081525090506117ef565b600082905060005b600082146116c15780806116aa906136ad565b915050600a826116ba9190613506565b9150611697565b60008167ffffffffffffffff811115611703577f4e487b7100000000000000000000000000000000000000000000000000000000600052604160045260246000fd5b6040519080825280601f01601f1916602001820160405280156117355781602001600182028036833780820191505090505b5090505b600085146117e85760018261174e9190613591565b9150600a8561175d91906136f6565b603061176991906134b0565b60f81b8183815181106117a5577f4e487b7100000000000000000000000000000000000000000000000000000000600052603260045260246000fd5b60200101907effffffffffffffffffffffffffffffffffffffffffffffffffffffffffffff1916908160001a905350600a856117e19190613506565b9450611739565b8093505050505b919050565b6000816040516020016118079190612f47565b6040516020818303038152906040528051906020012060001c9050919050565b600081600001549050919050565b6060600082519050600081141561185e57604051806020016040528060008152509150506119ee565b6000600360028361186f91906134b0565b6118799190613506565b60046118859190613537565b9050600060208261189691906134b0565b67ffffffffffffffff8111156118d5577f4e487b7100000000000000000000000000000000000000000000000000000000600052604160045260246000fd5b6040519080825280601f01601f1916602001820160405280156119075781602001600182028036833780820191505090505b5090506000604051806060016040528060408152602001613876604091399050600181016020830160005b868110156119ab5760038101905062ffffff818a015116603f8160121c168401518060081b905060ff603f83600c1c1686015116810190508060081b905060ff603f8360061c1686015116810190508060081b905060ff603f831686015116810190508060e01b90508084526004840193505050611932565b5060038606600181146119c557600281146119d5576119e0565b613d3d60f01b60028303526119e0565b603d60f81b60018303525b508484525050819450505050505b919050565b611a0d828260405180602001604052806000815250611def565b5050565b611a1a826111e0565b611a59576040517f08c379a0000000000000000000000000000000000000000000000000000000008152600401611a50906132dc565b60405180910390fd5b80600660008481526020019081526020016000209080519060200190611a809291906121c2565b505050565b611b1f838383604051602401611a9d9392919061319e565b6040516020818303038152906040527fe3849f79000000000000000000000000000000000000000000000000000000007bffffffffffffffffffffffffffffffffffffffffffffffffffffffff19166020820180517bffffffffffffffffffffffffffffffffffffffffffffffffffffffff8381831617835250505050611dc1565b505050565b6001816000016000828254019250508190555050565b8173ffffffffffffffffffffffffffffffffffffffff168373ffffffffffffffffffffffffffffffffffffffff161415611ba9576040517f08c379a0000000000000000000000000000000000000000000000000000000008152600401611ba09061323c565b60405180910390fd5b80600560008573ffffffffffffffffffffffffffffffffffffffff1673ffffffffffffffffffffffffffffffffffffffff16815260200190815260200160002060008473ffffffffffffffffffffffffffffffffffffffff1673ffffffffffffffffffffffffffffffffffffffff16815260200190815260200160002060006101000a81548160ff0219169083151502179055508173ffffffffffffffffffffffffffffffffffffffff168373ffffffffffffffffffffffffffffffffffffffff167f17307eab39ab6107e8899845ad3d59bd9653f200f220920489ca2b5937696c3183604051611c9a9190613161565b60405180910390a3505050565b611cb28484846113eb565b611cbe84848484611e4a565b611cfd576040517f08c379a0000000000000000000000000000000000000000000000000000000008152600401611cf4906131dc565b60405180910390fd5b50505050565b606060405180602001604052806000815250905090565b6060611d25826111e0565b611d64576040517f08c379a0000000000000000000000000000000000000000000000000000000008152600401611d5b9061337c565b60405180910390fd5b6000611d6e611d03565b90506000815111611d8e5760405180602001604052806000815250611db9565b80611d9884611647565b604051602001611da9929190612f5e565b6040516020818303038152906040525b915050919050565b60008151905060006a636f6e736f6c652e6c6f679050602083016000808483855afa5050505050565b505050565b611df98383611fe1565b611e066000848484611e4a565b611e45576040517f08c379a0000000000000000000000000000000000000000000000000000000008152600401611e3c906131dc565b60405180910390fd5b505050565b6000611e6b8473ffffffffffffffffffffffffffffffffffffffff166121af565b15611fd4578373ffffffffffffffffffffffffffffffffffffffff1663150b7a02611e9461124c565b8786866040518563ffffffff1660e01b8152600401611eb694939291906130ec565b602060405180830381600087803b158015611ed057600080fd5b505af1925050508015611f0157506040513d601f19601f82011682018060405250810190611efe9190612506565b60015b611f84573d8060008114611f31576040519150601f19603f3d011682016040523d82523d6000602084013e611f36565b606091505b50600081511415611f7c576040517f08c379a0000000000000000000000000000000000000000000000000000000008152600401611f73906131dc565b60405180910390fd5b805181602001fd5b63150b7a0260e01b7bffffffffffffffffffffffffffffffffffffffffffffffffffffffff1916817bffffffffffffffffffffffffffffffffffffffffffffffffffffffff191614915050611fd9565b600190505b949350505050565b600073ffffffffffffffffffffffffffffffffffffffff168273ffffffffffffffffffffffffffffffffffffffff161415612051576040517f08c379a0000000000000000000000000000000000000000000000000000000008152600401612048906132fc565b60405180910390fd5b61205a816111e0565b1561209a576040517f08c379a0000000000000000000000000000000000000000000000000000000008152600401612091906131fc565b60405180910390fd5b6120a660008383611dea565b6001600360008473ffffffffffffffffffffffffffffffffffffffff1673ffffffffffffffffffffffffffffffffffffffff16815260200190815260200160002060008282546120f691906134b0565b92505081905550816002600083815260200190815260200160002060006101000a81548173ffffffffffffffffffffffffffffffffffffffff021916908373ffffffffffffffffffffffffffffffffffffffff160217905550808273ffffffffffffffffffffffffffffffffffffffff16600073ffffffffffffffffffffffffffffffffffffffff167fddf252ad1be2c89b69c2b068fc378daa952ba7f163c4a11628f55a4df523b3ef60405160405180910390a45050565b600080823b905060008111915050919050565b8280546121ce9061367b565b90600052602060002090601f0160209004810192826121f05760008555612237565b82601f1061220957805160ff1916838001178555612237565b82800160010185558215612237579182015b8281111561223657825182559160200191906001019061221b565b5b5090506122449190612248565b5090565b5b80821115612261576000816000905550600101612249565b5090565b600061227861227384613428565b6133f7565b90508281526020810184848401111561229057600080fd5b61229b848285613639565b509392505050565b6000813590506122b2816137f4565b92915050565b6000813590506122c78161380b565b92915050565b6000813590506122dc81613822565b92915050565b6000815190506122f181613822565b92915050565b600082601f83011261230857600080fd5b8135612318848260208601612265565b91505092915050565b60008135905061233081613839565b92915050565b60006020828403121561234857600080fd5b6000612356848285016122a3565b91505092915050565b6000806040838503121561237257600080fd5b6000612380858286016122a3565b9250506020612391858286016122a3565b9150509250929050565b6000806000606084860312156123b057600080fd5b60006123be868287016122a3565b93505060206123cf868287016122a3565b92505060406123e086828701612321565b9150509250925092565b6000806000806080858703121561240057600080fd5b600061240e878288016122a3565b945050602061241f878288016122a3565b935050604061243087828801612321565b925050606085013567ffffffffffffffff81111561244d57600080fd5b612459878288016122f7565b91505092959194509250565b6000806040838503121561247857600080fd5b6000612486858286016122a3565b9250506020612497858286016122b8565b9150509250929050565b600080604083850312156124b457600080fd5b60006124c2858286016122a3565b92505060206124d385828601612321565b9150509250929050565b6000602082840312156124ef57600080fd5b60006124fd848285016122cd565b91505092915050565b60006020828403121561251857600080fd5b6000612526848285016122e2565b91505092915050565b60006020828403121561254157600080fd5b600061254f84828501612321565b91505092915050565b612561816135c5565b82525050565b612570816135d7565b82525050565b60006125818261346d565b61258b8185613483565b935061259b818560208601613648565b6125a4816137e3565b840191505092915050565b60006125ba82613478565b6125c48185613494565b93506125d4818560208601613648565b6125dd816137e3565b840191505092915050565b60006125f382613478565b6125fd81856134a5565b935061260d818560208601613648565b80840191505092915050565b600081546126268161367b565b61263081866134a5565b9450600182166000811461264b576001811461265c5761268f565b60ff1983168652818601935061268f565b61266585613458565b60005b8381101561268757815481890152600182019150602081019050612668565b838801955050505b50505092915050565b60006126a56025836134a5565b91507f68747470733a2f2f6e6674707265766965772e30786465762e636f6465732f3f60008301527f636f64653d0000000000000000000000000000000000000000000000000000006020830152602582019050919050565b600061270b603283613494565b91507f4552433732313a207472616e7366657220746f206e6f6e20455243373231526560008301527f63656976657220696d706c656d656e74657200000000000000000000000000006020830152604082019050919050565b6000612771601c83613494565b91507f4552433732313a20746f6b656e20616c7265616479206d696e746564000000006000830152602082019050919050565b60006127b1600a836134a5565b91507f54484952445f574f5244000000000000000000000000000000000000000000006000830152600a82019050919050565b60006127f1602483613494565b91507f4552433732313a207472616e7366657220746f20746865207a65726f2061646460008301527f72657373000000000000000000000000000000000000000000000000000000006020830152604082019050919050565b6000612857601983613494565b91507f4552433732313a20617070726f766520746f2063616c6c6572000000000000006000830152602082019050919050565b6000612897600b836134a5565b91507f5345434f4e445f574f52440000000000000000000000000000000000000000006000830152600b82019050919050565b60006128d7602c83613494565b91507f4552433732313a206f70657261746f7220717565727920666f72206e6f6e657860008301527f697374656e7420746f6b656e00000000000000000000000000000000000000006020830152604082019050919050565b600061293d600d836134a5565b91507f3c2f746578743e3c2f7376673e000000000000000000000000000000000000006000830152600d82019050919050565b600061297d6056836134a5565b91507f222c20226465736372697074696f6e223a20224120636f6c6c656374696f6e2060008301527f6f662063686170696e69736d6f732e222c2022696d616765223a20226461746160208301527f3a696d6167652f7376672b786d6c3b6261736536342c000000000000000000006040830152605682019050919050565b6000612a09603883613494565b91507f4552433732313a20617070726f76652063616c6c6572206973206e6f74206f7760008301527f6e6572206e6f7220617070726f76656420666f7220616c6c00000000000000006020830152604082019050919050565b6000612a6f602a83613494565b91507f4552433732313a2062616c616e636520717565727920666f7220746865207a6560008301527f726f2061646472657373000000000000000000000000000000000000000000006020830152604082019050919050565b6000612ad5602983613494565b91507f4552433732313a206f776e657220717565727920666f72206e6f6e657869737460008301527f656e7420746f6b656e00000000000000000000000000000000000000000000006020830152604082019050919050565b6000612b3b602e83613494565b91507f45524337323155524953746f726167653a2055524920736574206f66206e6f6e60008301527f6578697374656e7420746f6b656e0000000000000000000000000000000000006020830152604082019050919050565b6000612ba16002836134a5565b91507f227d0000000000000000000000000000000000000000000000000000000000006000830152600282019050919050565b6000612be1602083613494565b91507f4552433732313a206d696e7420746f20746865207a65726f20616464726573736000830152602082019050919050565b6000612c21603183613494565b91507f45524337323155524953746f726167653a2055524920717565727920666f722060008301527f6e6f6e6578697374656e7420746f6b656e0000000000000000000000000000006020830152604082019050919050565b6000612c87602c83613494565b91507f4552433732313a20617070726f76656420717565727920666f72206e6f6e657860008301527f697374656e7420746f6b656e00000000000000000000000000000000000000006020830152604082019050919050565b6000612ced602983613494565b91507f4552433732313a207472616e73666572206f6620746f6b656e2074686174206960008301527f73206e6f74206f776e00000000000000000000000000000000000000000000006020830152604082019050919050565b6000612d53602f83613494565b91507f4552433732314d657461646174613a2055524920717565727920666f72206e6f60008301527f6e6578697374656e7420746f6b656e00000000000000000000000000000000006020830152604082019050919050565b6000612db9600a836134a5565b91507f7b226e616d65223a2022000000000000000000000000000000000000000000006000830152600a82019050919050565b6000612df9602183613494565b91507f4552433732313a20617070726f76616c20746f2063757272656e74206f776e6560008301527f72000000000000000000000000000000000000000000000000000000000000006020830152604082019050919050565b6000612e5f600a836134a5565b91507f46495253545f574f5244000000000000000000000000000000000000000000006000830152600a82019050919050565b6000612e9f601d836134a5565b91507f646174613a6170706c69636174696f6e2f6a736f6e3b6261736536342c0000006000830152601d82019050919050565b6000612edf603183613494565b91507f4552433732313a207472616e736665722063616c6c6572206973206e6f74206f60008301527f776e6572206e6f7220617070726f7665640000000000000000000000000000006020830152604082019050919050565b612f418161362f565b82525050565b6000612f5382846125e8565b915081905092915050565b6000612f6a82856125e8565b9150612f7682846125e8565b91508190509392505050565b6000612f8e82866125e8565b9150612f9a82856125e8565b9150612fa682846125e8565b9150819050949350505050565b6000612fbf8285612619565b9150612fcb82846125e8565b9150612fd682612930565b91508190509392505050565b6000612fed82612698565b9150612ff982846125e8565b915081905092915050565b600061300f826127a4565b915061301b82846125e8565b915081905092915050565b60006130318261288a565b915061303d82846125e8565b915081905092915050565b600061305382612dac565b915061305f82856125e8565b915061306a82612970565b915061307682846125e8565b915061308182612b94565b91508190509392505050565b600061309882612e52565b91506130a482846125e8565b915081905092915050565b60006130ba82612e92565b91506130c682846125e8565b915081905092915050565b60006020820190506130e66000830184612558565b92915050565b60006080820190506131016000830187612558565b61310e6020830186612558565b61311b6040830185612f38565b818103606083015261312d8184612576565b905095945050505050565b600060408201905061314d6000830185612558565b61315a6020830184612f38565b9392505050565b60006020820190506131766000830184612567565b92915050565b6000602082019050818103600083015261319681846125af565b905092915050565b600060608201905081810360008301526131b881866125af565b90506131c76020830185612f38565b6131d46040830184612558565b949350505050565b600060208201905081810360008301526131f5816126fe565b9050919050565b6000602082019050818103600083015261321581612764565b9050919050565b60006020820190508181036000830152613235816127e4565b9050919050565b600060208201905081810360008301526132558161284a565b9050919050565b60006020820190508181036000830152613275816128ca565b9050919050565b60006020820190508181036000830152613295816129fc565b9050919050565b600060208201905081810360008301526132b581612a62565b9050919050565b600060208201905081810360008301526132d581612ac8565b9050919050565b600060208201905081810360008301526132f581612b2e565b9050919050565b6000602082019050818103600083015261331581612bd4565b9050919050565b6000602082019050818103600083015261333581612c14565b9050919050565b6000602082019050818103600083015261335581612c7a565b9050919050565b6000602082019050818103600083015261337581612ce0565b9050919050565b6000602082019050818103600083015261339581612d46565b9050919050565b600060208201905081810360008301526133b581612dec565b9050919050565b600060208201905081810360008301526133d581612ed2565b9050919050565b60006020820190506133f16000830184612f38565b92915050565b6000604051905081810181811067ffffffffffffffff8211171561341e5761341d6137b4565b5b8060405250919050565b600067ffffffffffffffff821115613443576134426137b4565b5b601f19601f8301169050602081019050919050565b60008190508160005260206000209050919050565b600081519050919050565b600081519050919050565b600082825260208201905092915050565b600082825260208201905092915050565b600081905092915050565b60006134bb8261362f565b91506134c68361362f565b9250827fffffffffffffffffffffffffffffffffffffffffffffffffffffffffffffffff038211156134fb576134fa613727565b5b828201905092915050565b60006135118261362f565b915061351c8361362f565b92508261352c5761352b613756565b5b828204905092915050565b60006135428261362f565b915061354d8361362f565b9250817fffffffffffffffffffffffffffffffffffffffffffffffffffffffffffffffff048311821515161561358657613585613727565b5b828202905092915050565b600061359c8261362f565b91506135a78361362f565b9250828210156135ba576135b9613727565b5b828203905092915050565b60006135d08261360f565b9050919050565b60008115159050919050565b60007fffffffff0000000000000000000000000000000000000000000000000000000082169050919050565b600073ffffffffffffffffffffffffffffffffffffffff82169050919050565b6000819050919050565b82818337600083830152505050565b60005b8381101561366657808201518184015260208101905061364b565b83811115613675576000848401525b50505050565b6000600282049050600182168061369357607f821691505b602082108114156136a7576136a6613785565b5b50919050565b60006136b88261362f565b91507fffffffffffffffffffffffffffffffffffffffffffffffffffffffffffffffff8214156136eb576136ea613727565b5b600182019050919050565b60006137018261362f565b915061370c8361362f565b92508261371c5761371b613756565b5b828206905092915050565b7f4e487b7100000000000000000000000000000000000000000000000000000000600052601160045260246000fd5b7f4e487b7100000000000000000000000000000000000000000000000000000000600052601260045260246000fd5b7f4e487b7100000000000000000000000000000000000000000000000000000000600052602260045260246000fd5b7f4e487b7100000000000000000000000000000000000000000000000000000000600052604160045260246000fd5b6000601f19601f8301169050919050565b6137fd816135c5565b811461380857600080fd5b50565b613814816135d7565b811461381f57600080fd5b50565b61382b816135e3565b811461383657600080fd5b50565b6138428161362f565b811461384d57600080fd5b5056fe416e204e465420772f20494420257320686173206265656e206d696e74656420746f2025734142434445464748494a4b4c4d4e4f505152535455565758595a6162636465666768696a6b6c6d6e6f707172737475767778797a303132333435363738392b2fa2646970667358221220bab6aa690d19b131dc48afe1fa3dfdf316a1917d6bdbab988e8fe8cfa901cfe864736f6c634300080000333c73766720786d6c6e733d27687474703a2f2f7777772e77332e6f72672f323030302f73766727207072657365727665417370656374526174696f3d27784d696e594d696e206d656574272076696577426f783d273020302033353020333530273e3c7374796c653e2e62617365207b2066696c6c3a2077686974653b20666f6e742d66616d696c793a2073657269663b20666f6e742d73697a653a20323470783b207d3c2f7374796c653e3c726563742077696474683d273130302527206865696768743d2731303025272066696c6c3d27626c61636b27202f3e3c7465787420783d273530252720793d273530252720636c6173733d27626173652720646f6d696e616e742d626173656c696e653d276d6964646c652720746578742d616e63686f723d276d6964646c65273e",
  "linkReferences": {},
  "deployedLinkReferences": {}
}